{
  "_format": "hh-sol-artifact-1",
  "contractName": "SkillRegistry",
  "sourceName": "contracts/SkillRegistry.sol",
  "abi": [
    {
      "inputs": [],
      "stateMutability": "nonpayable",
      "type": "constructor"
    },
    {
      "anonymous": false,
      "inputs": [
        {
          "indexed": true,
          "internalType": "uint256",
          "name": "skillId",
          "type": "uint256"
        },
        {
          "indexed": false,
          "internalType": "uint256",
          "name": "newTotal",
          "type": "uint256"
        }
      ],
      "name": "CallCountIncremented",
      "type": "event"
    },
    {
      "anonymous": false,
      "inputs": [
        {
          "indexed": true,
          "internalType": "address",
          "name": "previousOwner",
          "type": "address"
        },
        {
          "indexed": true,
          "internalType": "address",
          "name": "newOwner",
          "type": "address"
        }
      ],
      "name": "OwnershipTransferred",
      "type": "event"
    },
    {
      "anonymous": false,
      "inputs": [
        {
          "indexed": true,
          "internalType": "uint256",
          "name": "skillId",
          "type": "uint256"
        },
        {
          "indexed": false,
          "internalType": "string",
          "name": "newProfileIpfsHash",
          "type": "string"
        }
      ],
      "name": "ProfileUpdated",
      "type": "event"
    },
    {
      "anonymous": false,
      "inputs": [
        {
          "indexed": true,
          "internalType": "uint256",
          "name": "skillId",
          "type": "uint256"
        },
        {
          "indexed": true,
          "internalType": "address",
          "name": "owner",
          "type": "address"
        },
        {
          "indexed": false,
          "internalType": "string",
          "name": "name",
          "type": "string"
        },
        {
          "indexed": false,
          "internalType": "string",
          "name": "category",
          "type": "string"
        },
        {
          "indexed": false,
          "internalType": "uint256",
          "name": "pricePerCall",
          "type": "uint256"
        },
        {
          "indexed": false,
          "internalType": "uint256",
          "name": "licensePrice",
          "type": "uint256"
        },
        {
          "indexed": false,
          "internalType": "bool",
          "name": "isAnonymous",
          "type": "bool"
        }
      ],
      "name": "SkillRegistered",
      "type": "event"
    },
    {
      "anonymous": false,
      "inputs": [
        {
          "indexed": true,
          "internalType": "uint256",
          "name": "skillId",
          "type": "uint256"
        },
        {
          "indexed": false,
          "internalType": "uint256",
          "name": "pricePerCall",
          "type": "uint256"
        },
        {
          "indexed": false,
          "internalType": "uint256",
          "name": "licensePrice",
          "type": "uint256"
        },
        {
          "indexed": false,
          "internalType": "bool",
          "name": "active",
          "type": "bool"
        }
      ],
      "name": "SkillUpdated",
      "type": "event"
    },
    {
      "inputs": [
        {
          "internalType": "uint256",
          "name": "skillId",
          "type": "uint256"
        }
      ],
      "name": "getPrices",
      "outputs": [
        {
          "internalType": "uint256",
          "name": "",
          "type": "uint256"
        },
        {
          "internalType": "uint256",
          "name": "",
          "type": "uint256"
        }
      ],
      "stateMutability": "view",
      "type": "function"
    },
    {
      "inputs": [
        {
          "internalType": "uint256",
          "name": "skillId",
          "type": "uint256"
        }
      ],
      "name": "getSkill",
      "outputs": [
        {
          "components": [
            {
              "internalType": "uint256",
              "name": "id",
              "type": "uint256"
            },
            {
              "internalType": "address",
              "name": "owner",
              "type": "address"
            },
            {
              "internalType": "string",
              "name": "skillIpfsHash",
              "type": "string"
            },
            {
              "internalType": "string",
              "name": "profileIpfsHash",
              "type": "string"
            },
            {
              "internalType": "string",
              "name": "name",
              "type": "string"
            },
            {
              "internalType": "string",
              "name": "category",
              "type": "string"
            },
            {
              "internalType": "uint256",
              "name": "pricePerCall",
              "type": "uint256"
            },
            {
              "internalType": "uint256",
              "name": "licensePrice",
              "type": "uint256"
            },
            {
              "internalType": "bool",
              "name": "isAnonymous",
              "type": "bool"
            },
            {
              "internalType": "bool",
              "name": "active",
              "type": "bool"
            },
            {
              "internalType": "uint256",
              "name": "createdAt",
              "type": "uint256"
            },
            {
              "internalType": "uint256",
              "name": "totalCalls",
              "type": "uint256"
            }
          ],
          "internalType": "struct SkillRegistry.SkillView",
          "name": "",
          "type": "tuple"
        }
      ],
      "stateMutability": "view",
      "type": "function"
    },
    {
      "inputs": [
        {
          "internalType": "uint256",
          "name": "skillId",
          "type": "uint256"
        }
      ],
      "name": "getSkillOwner",
      "outputs": [
        {
          "internalType": "address",
          "name": "",
          "type": "address"
        }
      ],
      "stateMutability": "view",
      "type": "function"
    },
    {
      "inputs": [
        {
          "internalType": "address",
          "name": "owner",
          "type": "address"
        }
      ],
      "name": "getSkillsByOwner",
      "outputs": [
        {
          "internalType": "uint256[]",
          "name": "",
          "type": "uint256[]"
        }
      ],
      "stateMutability": "view",
      "type": "function"
    },
    {
      "inputs": [
        {
          "internalType": "uint256",
          "name": "skillId",
          "type": "uint256"
        }
      ],
      "name": "incrementCallCount",
      "outputs": [],
      "stateMutability": "nonpayable",
      "type": "function"
    },
    {
      "inputs": [
        {
          "internalType": "uint256",
          "name": "skillId",
          "type": "uint256"
        }
      ],
      "name": "isActive",
      "outputs": [
        {
          "internalType": "bool",
          "name": "",
          "type": "bool"
        }
      ],
      "stateMutability": "view",
      "type": "function"
    },
    {
      "inputs": [],
      "name": "licenseContract",
      "outputs": [
        {
          "internalType": "address",
          "name": "",
          "type": "address"
        }
      ],
      "stateMutability": "view",
      "type": "function"
    },
    {
      "inputs": [],
      "name": "owner",
      "outputs": [
        {
          "internalType": "address",
          "name": "",
          "type": "address"
        }
      ],
      "stateMutability": "view",
      "type": "function"
    },
    {
      "inputs": [],
      "name": "paymentContract",
      "outputs": [
        {
          "internalType": "address",
          "name": "",
          "type": "address"
        }
      ],
      "stateMutability": "view",
      "type": "function"
    },
    {
      "inputs": [
        {
          "internalType": "string",
          "name": "skillIpfsHash",
          "type": "string"
        },
        {
          "internalType": "string",
          "name": "profileIpfsHash",
          "type": "string"
        },
        {
          "internalType": "string",
          "name": "name",
          "type": "string"
        },
        {
          "internalType": "string",
          "name": "category",
          "type": "string"
        },
        {
          "internalType": "uint256",
          "name": "pricePerCall",
          "type": "uint256"
        },
        {
          "internalType": "uint256",
          "name": "licensePrice",
          "type": "uint256"
        },
        {
          "internalType": "bool",
          "name": "isAnonymous",
          "type": "bool"
        }
      ],
      "name": "registerSkill",
      "outputs": [
        {
          "internalType": "uint256",
          "name": "skillId",
          "type": "uint256"
        }
      ],
      "stateMutability": "nonpayable",
      "type": "function"
    },
    {
      "inputs": [],
      "name": "renounceOwnership",
      "outputs": [],
      "stateMutability": "nonpayable",
      "type": "function"
    },
    {
      "inputs": [
        {
          "internalType": "address",
          "name": "_license",
          "type": "address"
        }
      ],
      "name": "setLicenseContract",
      "outputs": [],
      "stateMutability": "nonpayable",
      "type": "function"
    },
    {
      "inputs": [
        {
          "internalType": "address",
          "name": "_payment",
          "type": "address"
        }
      ],
      "name": "setPaymentContract",
      "outputs": [],
      "stateMutability": "nonpayable",
      "type": "function"
    },
    {
      "inputs": [],
      "name": "totalSkills",
      "outputs": [
        {
          "internalType": "uint256",
          "name": "",
          "type": "uint256"
        }
      ],
      "stateMutability": "view",
      "type": "function"
    },
    {
      "inputs": [
        {
          "internalType": "address",
          "name": "newOwner",
          "type": "address"
        }
      ],
      "name": "transferOwnership",
      "outputs": [],
      "stateMutability": "nonpayable",
      "type": "function"
    },
    {
      "inputs": [
        {
          "internalType": "uint256",
          "name": "skillId",
          "type": "uint256"
        },
        {
          "internalType": "string",
          "name": "newProfileIpfsHash",
          "type": "string"
        }
      ],
      "name": "updateProfile",
      "outputs": [],
      "stateMutability": "nonpayable",
      "type": "function"
    },
    {
      "inputs": [
        {
          "internalType": "uint256",
          "name": "skillId",
          "type": "uint256"
        },
        {
          "internalType": "uint256",
          "name": "newPricePerCall",
          "type": "uint256"
        },
        {
          "internalType": "uint256",
          "name": "newLicensePrice",
          "type": "uint256"
        },
        {
          "internalType": "bool",
          "name": "active",
          "type": "bool"
        },
        {
          "internalType": "bool",
          "name": "isAnonymous",
          "type": "bool"
        }
      ],
      "name": "updateSkill",
      "outputs": [],
      "stateMutability": "nonpayable",
      "type": "function"
    }
  ],
  "bytecode": "0x6080604052600160025534801561001557600080fd5b5061001f33610028565b60018055610078565b600080546001600160a01b038381166001600160a01b0319831681178455604051919092169283917f8be0079c531659141344cd1fd0a4f28419497f9722a3daafe3b4186f6b6457e09190a35050565b6117a4806100876000396000f3fe608060405234801561001057600080fd5b506004361061010b5760003560e01c806391492956116100a2578063bd880fae11610071578063bd880fae1461024d578063db7be76c1461026d578063e2c52b9d14610275578063f2fde38b14610288578063f7760c541461029b57600080fd5b806391492956146101ec5780639ae3aff8146102145780639c91dd5614610227578063b90bd9d01461023a57600080fd5b806382afd23b116100de57806382afd23b1461016657806389c7e0a0146101a15780638abb20cc146101b45780638da5cb5b146101c757600080fd5b80630e01e59b146101105780634160b9bf146101255780636324622014610138578063715018a61461015e575b600080fd5b61012361011e36600461109b565b6102bb565b005b6101236101333660046110eb565b610426565b61014b61014636600461114d565b6104fc565b6040519081526020015b60405180910390f35b6101236108d2565b6101916101743660046110eb565b600090815260036020526040902060080154610100900460ff1690565b6040519015158152602001610155565b6101236101af366004611236565b6108e6565b6101236101c2366004611282565b610a02565b6000546001600160a01b03165b6040516001600160a01b039091168152602001610155565b6101ff6101fa3660046110eb565b610a2c565b60408051928352602083019190915201610155565b610123610222366004611282565b610a71565b6005546101d4906001600160a01b031681565b6101d46102483660046110eb565b610a9b565b61026061025b3660046110eb565b610b3e565b60405161015591906112f8565b61014b610ee1565b6006546101d4906001600160a01b031681565b610123610296366004611282565b610ef7565b6102ae6102a9366004611282565b610f70565b60405161015591906113f8565b600085815260036020526040812080549091036102f35760405162461bcd60e51b81526004016102ea9061143c565b60405180910390fd5b60018101546001600160a01b0316331461033b5760405162461bcd60e51b81526020600482015260096024820152683737ba1037bbb732b960b91b60448201526064016102ea565b600085116103865760405162461bcd60e51b81526020600482015260186024820152770707269636550657243616c6c206d757374206265203e20360441b60448201526064016102ea565b600681018590556007810184905560088101805461ffff19166101008515150260ff19161783158015919091179091556103da5760408051602081019091526000815260038201906103d89082611504565b505b604080518681526020810186905284151581830152905187917f037eb2df902b125d2f2eddbb271f5ed8ffe83add8c7975d1867bd5e6e3af6cc4919081900360600190a2505050505050565b6005546001600160a01b031633148061044957506006546001600160a01b031633145b6104845760405162461bcd60e51b815260206004820152600c60248201526b1d5b985d5d1a1bdc9a5e995960a21b60448201526064016102ea565b6000818152600360205260408120600a018054600192906104a69084906115da565b909155505060008181526003602052604090819020600a0154905182917f63c40abe4ca5b9b62c020a97cb0e45b7a565b7abef78e6ee2e19d76081e2d42f916104f191815260200190565b60405180910390a250565b60008a6105445760405162461bcd60e51b81526020600482015260166024820152751cdada5b1b125c199cd2185cda081c995c5d5a5c995960521b60448201526064016102ea565b866105815760405162461bcd60e51b815260206004820152600d60248201526c1b985b59481c995c5d5a5c9959609a1b60448201526064016102ea565b846105c25760405162461bcd60e51b815260206004820152601160248201527018d85d1959dbdc9e481c995c5d5a5c9959607a1b60448201526064016102ea565b6000841161060d5760405162461bcd60e51b81526020600482015260186024820152770707269636550657243616c6c206d757374206265203e20360441b60448201526064016102ea565b6002805490600061061d836115f3565b919050559050604051806101800160405280828152602001336001600160a01b031681526020018d8d8080601f016020809104026020016040519081016040528093929190818152602001838380828437600092019190915250505090825250602001836106c1578b8b8080601f0160208091040260200160405190810160405280939291908181526020018383808284376000920191909152506106d292505050565b604051806020016040528060008152505b815260200189898080601f016020809104026020016040519081016040528093929190818152602001838380828437600092019190915250505090825250604080516020601f8a018190048102820181019092528881529181019190899089908190840183828082843760009201829052509385525050506020808301889052604080840188905286151560608501526001608085018190524260a086015260c09094018390528583526003825291829020845181559084015192810180546001600160a01b0319166001600160a01b039094169390931790925582015160028201906107bf9082611504565b50606082015160038201906107d49082611504565b50608082015160048201906107e99082611504565b5060a082015160058201906107fe9082611504565b5060c0820151600682015560e082015160078201556101008083015160088301805461012086015161ffff1990911692151561ff00191692909217911515909202179055610140820151600982015561016090910151600a90910155336000818152600460209081526040808320805460018101825590845291909220018390555182907fa46e886d9d3c84d32a38dd81dca02a00e4716bf2944f772b1e45fc13f5dcc569906108bb908c908c908c908c908c908c908c90611635565b60405180910390a39b9a5050505050505050505050565b6108da610fdc565b6108e46000611036565b565b600083815260036020526040812080549091036109155760405162461bcd60e51b81526004016102ea9061143c565b60018101546001600160a01b0316331461095d5760405162461bcd60e51b81526020600482015260096024820152683737ba1037bbb732b960b91b60448201526064016102ea565b600881015460ff16156109b25760405162461bcd60e51b815260206004820152601f60248201527f736b696c6c20697320616e6f6e796d6f7573202d206e6f2070726f66696c650060448201526064016102ea565b600381016109c183858361167e565b50837ff96ba9de8f35fc1b2f70be308b08d6f4474871473f0e193bd910b20f565ff0b184846040516109f492919061173f565b60405180910390a250505050565b610a0a610fdc565b600580546001600160a01b0319166001600160a01b0392909216919091179055565b600081815260036020526040812080548291908203610a5d5760405162461bcd60e51b81526004016102ea9061143c565b806006015481600701549250925050915091565b610a79610fdc565b600680546001600160a01b0319166001600160a01b0392909216919091179055565b6005546000906001600160a01b0316331480610ac157506006546001600160a01b031633145b610afc5760405162461bcd60e51b815260206004820152600c60248201526b1d5b985d5d1a1bdc9a5e995960a21b60448201526064016102ea565b60008281526003602052604081208054909103610b2b5760405162461bcd60e51b81526004016102ea9061143c565b600101546001600160a01b031692915050565b610baf6040518061018001604052806000815260200160006001600160a01b0316815260200160608152602001606081526020016060815260200160608152602001600081526020016000815260200160001515815260200160001515815260200160008152602001600081525090565b60008281526003602052604081208054909103610bde5760405162461bcd60e51b81526004016102ea9061143c565b604080516101808101909152815481526008820154602082019060ff16610c125760018301546001600160a01b0316610c15565b60005b6001600160a01b03168152602001826002018054610c329061147b565b80601f0160208091040260200160405190810160405280929190818152602001828054610c5e9061147b565b8015610cab5780601f10610c8057610100808354040283529160200191610cab565b820191906000526020600020905b815481529060010190602001808311610c8e57829003601f168201915b5050509183525050600883015460209091019060ff16610d5757826003018054610cd49061147b565b80601f0160208091040260200160405190810160405280929190818152602001828054610d009061147b565b8015610d4d5780601f10610d2257610100808354040283529160200191610d4d565b820191906000526020600020905b815481529060010190602001808311610d3057829003601f168201915b5050505050610d68565b604051806020016040528060008152505b8152602001826004018054610d7c9061147b565b80601f0160208091040260200160405190810160405280929190818152602001828054610da89061147b565b8015610df55780601f10610dca57610100808354040283529160200191610df5565b820191906000526020600020905b815481529060010190602001808311610dd857829003601f168201915b50505050508152602001826005018054610e0e9061147b565b80601f0160208091040260200160405190810160405280929190818152602001828054610e3a9061147b565b8015610e875780601f10610e5c57610100808354040283529160200191610e87565b820191906000526020600020905b815481529060010190602001808311610e6a57829003601f168201915b50505091835250506006830154602082015260078301546040820152600883015460ff808216151560608401526101009091041615156080820152600983015460a0820152600a9092015460c09092019190915292915050565b60006001600254610ef2919061175b565b905090565b610eff610fdc565b6001600160a01b038116610f645760405162461bcd60e51b815260206004820152602660248201527f4f776e61626c653a206e6577206f776e657220697320746865207a65726f206160448201526564647265737360d01b60648201526084016102ea565b610f6d81611036565b50565b6001600160a01b038116600090815260046020908152604091829020805483518184028101840190945280845260609392830182828015610fd057602002820191906000526020600020905b815481526020019060010190808311610fbc575b50505050509050919050565b6000546001600160a01b031633146108e45760405162461bcd60e51b815260206004820181905260248201527f4f776e61626c653a2063616c6c6572206973206e6f7420746865206f776e657260448201526064016102ea565b600080546001600160a01b038381166001600160a01b0319831681178455604051919092169283917f8be0079c531659141344cd1fd0a4f28419497f9722a3daafe3b4186f6b6457e09190a35050565b8035801515811461109657600080fd5b919050565b600080600080600060a086880312156110b357600080fd5b8535945060208601359350604086013592506110d160608701611086565b91506110df60808701611086565b90509295509295909350565b6000602082840312156110fd57600080fd5b5035919050565b60008083601f84011261111657600080fd5b50813567ffffffffffffffff81111561112e57600080fd5b60208301915083602082850101111561114657600080fd5b9250929050565b600080600080600080600080600080600060e08c8e03121561116e57600080fd5b67ffffffffffffffff808d35111561118557600080fd5b6111928e8e358f01611104565b909c509a5060208d01358110156111a857600080fd5b6111b88e60208f01358f01611104565b909a50985060408d01358110156111ce57600080fd5b6111de8e60408f01358f01611104565b909850965060608d01358110156111f457600080fd5b506112058d60608e01358e01611104565b909550935060808c0135925060a08c0135915061122460c08d01611086565b90509295989b509295989b9093969950565b60008060006040848603121561124b57600080fd5b83359250602084013567ffffffffffffffff81111561126957600080fd5b61127586828701611104565b9497909650939450505050565b60006020828403121561129457600080fd5b81356001600160a01b03811681146112ab57600080fd5b9392505050565b6000815180845260005b818110156112d8576020818501810151868301820152016112bc565b506000602082860101526020601f19601f83011685010191505092915050565b60208152815160208201526000602083015161131f60408401826001600160a01b03169052565b50604083015161018080606085015261133c6101a08501836112b2565b91506060850151601f198086850301608087015261135a84836112b2565b935060808701519150808685030160a087015261137784836112b2565b935060a08701519150808685030160c08701525061139583826112b2565b92505060c085015160e085015260e08501516101008181870152808701519150506101206113c68187018315159052565b86015190506101406113db8682018315159052565b860151610160868101919091529095015193019290925250919050565b6020808252825182820181905260009190848201906040850190845b8181101561143057835183529284019291840191600101611414565b50909695505050505050565b6020808252600f908201526e1cdada5b1b081b9bdd08199bdd5b99608a1b604082015260600190565b634e487b7160e01b600052604160045260246000fd5b600181811c9082168061148f57607f821691505b6020821081036114af57634e487b7160e01b600052602260045260246000fd5b50919050565b601f8211156114ff57600081815260208120601f850160051c810160208610156114dc5750805b601f850160051c820191505b818110156114fb578281556001016114e8565b5050505b505050565b815167ffffffffffffffff81111561151e5761151e611465565b6115328161152c845461147b565b846114b5565b602080601f831160018114611567576000841561154f5750858301515b600019600386901b1c1916600185901b1785556114fb565b600085815260208120601f198616915b8281101561159657888601518255948401946001909101908401611577565b50858210156115b45787850151600019600388901b60f8161c191681555b5050505050600190811b01905550565b634e487b7160e01b600052601160045260246000fd5b808201808211156115ed576115ed6115c4565b92915050565b600060018201611605576116056115c4565b5060010190565b81835281816020850137506000828201602090810191909152601f909101601f19169091010190565b60a08152600061164960a08301898b61160c565b828103602084015261165c81888a61160c565b6040840196909652505060608101929092521515608090910152949350505050565b67ffffffffffffffff83111561169657611696611465565b6116aa836116a4835461147b565b836114b5565b6000601f8411600181146116de57600085156116c65750838201355b600019600387901b1c1916600186901b178355611738565b600083815260209020601f19861690835b8281101561170f57868501358255602094850194600190920191016116ef565b508682101561172c5760001960f88860031b161c19848701351681555b505060018560011b0183555b5050505050565b60208152600061175360208301848661160c565b949350505050565b818103818111156115ed576115ed6115c456fea2646970667358221220b76d49489972fd65db9b93562a521c7f2b410f5d61ce5568a8bddc60030f594764736f6c63430008140033",
  "linkReferences": {},
  "deployedLinkReferences": {}
}