{
  "_format": "hh-sol-artifact-1",
  "contractName": "SkillLicense",
  "sourceName": "contracts/SkillLicense.sol",
  "abi": [
    {
      "inputs": [
        {
          "internalType": "address",
          "name": "_registry",
          "type": "address"
        },
        {
          "internalType": "address",
          "name": "_treasury",
          "type": "address"
        }
      ],
      "stateMutability": "nonpayable",
      "type": "constructor"
    },
    {
      "anonymous": false,
      "inputs": [
        {
          "indexed": true,
          "internalType": "address",
          "name": "owner",
          "type": "address"
        },
        {
          "indexed": true,
          "internalType": "address",
          "name": "approved",
          "type": "address"
        },
        {
          "indexed": true,
          "internalType": "uint256",
          "name": "tokenId",
          "type": "uint256"
        }
      ],
      "name": "Approval",
      "type": "event"
    },
    {
      "anonymous": false,
      "inputs": [
        {
          "indexed": true,
          "internalType": "address",
          "name": "owner",
          "type": "address"
        },
        {
          "indexed": true,
          "internalType": "address",
          "name": "operator",
          "type": "address"
        },
        {
          "indexed": false,
          "internalType": "bool",
          "name": "approved",
          "type": "bool"
        }
      ],
      "name": "ApprovalForAll",
      "type": "event"
    },
    {
      "anonymous": false,
      "inputs": [
        {
          "indexed": true,
          "internalType": "uint256",
          "name": "tokenId",
          "type": "uint256"
        },
        {
          "indexed": true,
          "internalType": "uint256",
          "name": "skillId",
          "type": "uint256"
        },
        {
          "indexed": true,
          "internalType": "address",
          "name": "buyer",
          "type": "address"
        },
        {
          "indexed": false,
          "internalType": "uint256",
          "name": "totalPaid",
          "type": "uint256"
        },
        {
          "indexed": false,
          "internalType": "uint256",
          "name": "creatorShare",
          "type": "uint256"
        },
        {
          "indexed": false,
          "internalType": "uint256",
          "name": "platformShare",
          "type": "uint256"
        }
      ],
      "name": "LicenseMinted",
      "type": "event"
    },
    {
      "anonymous": false,
      "inputs": [
        {
          "indexed": true,
          "internalType": "address",
          "name": "previousOwner",
          "type": "address"
        },
        {
          "indexed": true,
          "internalType": "address",
          "name": "newOwner",
          "type": "address"
        }
      ],
      "name": "OwnershipTransferred",
      "type": "event"
    },
    {
      "anonymous": false,
      "inputs": [
        {
          "indexed": true,
          "internalType": "address",
          "name": "from",
          "type": "address"
        },
        {
          "indexed": true,
          "internalType": "address",
          "name": "to",
          "type": "address"
        },
        {
          "indexed": true,
          "internalType": "uint256",
          "name": "tokenId",
          "type": "uint256"
        }
      ],
      "name": "Transfer",
      "type": "event"
    },
    {
      "inputs": [
        {
          "internalType": "address",
          "name": "to",
          "type": "address"
        },
        {
          "internalType": "uint256",
          "name": "tokenId",
          "type": "uint256"
        }
      ],
      "name": "approve",
      "outputs": [],
      "stateMutability": "nonpayable",
      "type": "function"
    },
    {
      "inputs": [
        {
          "internalType": "address",
          "name": "owner",
          "type": "address"
        }
      ],
      "name": "balanceOf",
      "outputs": [
        {
          "internalType": "uint256",
          "name": "",
          "type": "uint256"
        }
      ],
      "stateMutability": "view",
      "type": "function"
    },
    {
      "inputs": [
        {
          "internalType": "uint256",
          "name": "tokenId",
          "type": "uint256"
        }
      ],
      "name": "getApproved",
      "outputs": [
        {
          "internalType": "address",
          "name": "",
          "type": "address"
        }
      ],
      "stateMutability": "view",
      "type": "function"
    },
    {
      "inputs": [
        {
          "internalType": "uint256",
          "name": "skillId",
          "type": "uint256"
        },
        {
          "internalType": "address",
          "name": "holder",
          "type": "address"
        }
      ],
      "name": "hasLicense",
      "outputs": [
        {
          "internalType": "bool",
          "name": "",
          "type": "bool"
        }
      ],
      "stateMutability": "view",
      "type": "function"
    },
    {
      "inputs": [
        {
          "internalType": "address",
          "name": "owner",
          "type": "address"
        },
        {
          "internalType": "address",
          "name": "operator",
          "type": "address"
        }
      ],
      "name": "isApprovedForAll",
      "outputs": [
        {
          "internalType": "bool",
          "name": "",
          "type": "bool"
        }
      ],
      "stateMutability": "view",
      "type": "function"
    },
    {
      "inputs": [
        {
          "internalType": "uint256",
          "name": "skillId",
          "type": "uint256"
        },
        {
          "internalType": "address",
          "name": "holder",
          "type": "address"
        }
      ],
      "name": "licenseCount",
      "outputs": [
        {
          "internalType": "uint256",
          "name": "",
          "type": "uint256"
        }
      ],
      "stateMutability": "view",
      "type": "function"
    },
    {
      "inputs": [
        {
          "internalType": "uint256",
          "name": "skillId",
          "type": "uint256"
        }
      ],
      "name": "mintLicense",
      "outputs": [
        {
          "internalType": "uint256",
          "name": "tokenId",
          "type": "uint256"
        }
      ],
      "stateMutability": "payable",
      "type": "function"
    },
    {
      "inputs": [],
      "name": "name",
      "outputs": [
        {
          "internalType": "string",
          "name": "",
          "type": "string"
        }
      ],
      "stateMutability": "view",
      "type": "function"
    },
    {
      "inputs": [],
      "name": "owner",
      "outputs": [
        {
          "internalType": "address",
          "name": "",
          "type": "address"
        }
      ],
      "stateMutability": "view",
      "type": "function"
    },
    {
      "inputs": [
        {
          "internalType": "uint256",
          "name": "tokenId",
          "type": "uint256"
        }
      ],
      "name": "ownerOf",
      "outputs": [
        {
          "internalType": "address",
          "name": "",
          "type": "address"
        }
      ],
      "stateMutability": "view",
      "type": "function"
    },
    {
      "inputs": [],
      "name": "platformFeeBps",
      "outputs": [
        {
          "internalType": "uint256",
          "name": "",
          "type": "uint256"
        }
      ],
      "stateMutability": "view",
      "type": "function"
    },
    {
      "inputs": [],
      "name": "registry",
      "outputs": [
        {
          "internalType": "contract SkillRegistry",
          "name": "",
          "type": "address"
        }
      ],
      "stateMutability": "view",
      "type": "function"
    },
    {
      "inputs": [],
      "name": "renounceOwnership",
      "outputs": [],
      "stateMutability": "nonpayable",
      "type": "function"
    },
    {
      "inputs": [
        {
          "internalType": "address",
          "name": "from",
          "type": "address"
        },
        {
          "internalType": "address",
          "name": "to",
          "type": "address"
        },
        {
          "internalType": "uint256",
          "name": "tokenId",
          "type": "uint256"
        }
      ],
      "name": "safeTransferFrom",
      "outputs": [],
      "stateMutability": "nonpayable",
      "type": "function"
    },
    {
      "inputs": [
        {
          "internalType": "address",
          "name": "from",
          "type": "address"
        },
        {
          "internalType": "address",
          "name": "to",
          "type": "address"
        },
        {
          "internalType": "uint256",
          "name": "tokenId",
          "type": "uint256"
        },
        {
          "internalType": "bytes",
          "name": "data",
          "type": "bytes"
        }
      ],
      "name": "safeTransferFrom",
      "outputs": [],
      "stateMutability": "nonpayable",
      "type": "function"
    },
    {
      "inputs": [
        {
          "internalType": "address",
          "name": "operator",
          "type": "address"
        },
        {
          "internalType": "bool",
          "name": "approved",
          "type": "bool"
        }
      ],
      "name": "setApprovalForAll",
      "outputs": [],
      "stateMutability": "nonpayable",
      "type": "function"
    },
    {
      "inputs": [
        {
          "internalType": "uint256",
          "name": "bps",
          "type": "uint256"
        }
      ],
      "name": "setPlatformFee",
      "outputs": [],
      "stateMutability": "nonpayable",
      "type": "function"
    },
    {
      "inputs": [
        {
          "internalType": "address",
          "name": "_treasury",
          "type": "address"
        }
      ],
      "name": "setTreasury",
      "outputs": [],
      "stateMutability": "nonpayable",
      "type": "function"
    },
    {
      "inputs": [
        {
          "internalType": "bytes4",
          "name": "interfaceId",
          "type": "bytes4"
        }
      ],
      "name": "supportsInterface",
      "outputs": [
        {
          "internalType": "bool",
          "name": "",
          "type": "bool"
        }
      ],
      "stateMutability": "view",
      "type": "function"
    },
    {
      "inputs": [],
      "name": "symbol",
      "outputs": [
        {
          "internalType": "string",
          "name": "",
          "type": "string"
        }
      ],
      "stateMutability": "view",
      "type": "function"
    },
    {
      "inputs": [
        {
          "internalType": "uint256",
          "name": "",
          "type": "uint256"
        }
      ],
      "name": "tokenSkill",
      "outputs": [
        {
          "internalType": "uint256",
          "name": "",
          "type": "uint256"
        }
      ],
      "stateMutability": "view",
      "type": "function"
    },
    {
      "inputs": [
        {
          "internalType": "uint256",
          "name": "tokenId",
          "type": "uint256"
        }
      ],
      "name": "tokenURI",
      "outputs": [
        {
          "internalType": "string",
          "name": "",
          "type": "string"
        }
      ],
      "stateMutability": "view",
      "type": "function"
    },
    {
      "inputs": [
        {
          "internalType": "address",
          "name": "from",
          "type": "address"
        },
        {
          "internalType": "address",
          "name": "to",
          "type": "address"
        },
        {
          "internalType": "uint256",
          "name": "tokenId",
          "type": "uint256"
        }
      ],
      "name": "transferFrom",
      "outputs": [],
      "stateMutability": "nonpayable",
      "type": "function"
    },
    {
      "inputs": [
        {
          "internalType": "address",
          "name": "newOwner",
          "type": "address"
        }
      ],
      "name": "transferOwnership",
      "outputs": [],
      "stateMutability": "nonpayable",
      "type": "function"
    },
    {
      "inputs": [],
      "name": "treasury",
      "outputs": [
        {
          "internalType": "address",
          "name": "",
          "type": "address"
        }
      ],
      "stateMutability": "view",
      "type": "function"
    }
  ],
  "bytecode": "0x60806040526103e8600a556001600b553480156200001c57600080fd5b5060405162002180380380620021808339810160408190526200003f916200016d565b60405180604001604052806011815260200170536b696c6c4d696e74204c6963656e736560781b8152506040518060400160405280600481526020016314d2d35360e21b81525081600090816200009791906200024a565b506001620000a682826200024a565b505050620000c3620000bd620000fa60201b60201c565b620000fe565b6001600755600880546001600160a01b039384166001600160a01b0319918216179091556009805492909316911617905562000316565b3390565b600680546001600160a01b038381166001600160a01b0319831681179093556040519116919082907f8be0079c531659141344cd1fd0a4f28419497f9722a3daafe3b4186f6b6457e090600090a35050565b80516001600160a01b03811681146200016857600080fd5b919050565b600080604083850312156200018157600080fd5b6200018c8362000150565b91506200019c6020840162000150565b90509250929050565b634e487b7160e01b600052604160045260246000fd5b600181811c90821680620001d057607f821691505b602082108103620001f157634e487b7160e01b600052602260045260246000fd5b50919050565b601f8211156200024557600081815260208120601f850160051c81016020861015620002205750805b601f850160051c820191505b8181101562000241578281556001016200022c565b5050505b505050565b81516001600160401b03811115620002665762000266620001a5565b6200027e81620002778454620001bb565b84620001f7565b602080601f831160018114620002b657600084156200029d5750858301515b600019600386901b1c1916600185901b17855562000241565b600085815260208120601f198616915b82811015620002e757888601518255948401946001909101908401620002c6565b5085821015620003065787850151600019600388901b60f8161c191681555b5050505050600190811b01905550565b611e5a80620003266000396000f3fe6080604052600436106101665760003560e01c806370a08231116100d1578063b88d4fde1161008a578063f0f4426011610064578063f0f4426014610499578063f1096b4d146104b9578063f2fde38b146104e6578063f582e4f51461050657600080fd5b8063b88d4fde14610410578063c87b56dd14610430578063e985e9c51461045057600080fd5b806370a0823114610368578063715018a6146103885780637b1039991461039d5780638da5cb5b146103bd57806395d89b41146103db578063a22cb465146103f057600080fd5b806323b872dd1161012357806323b872dd1461026057806342842e0e146102805780634b997fa2146102a057806355946753146102e557806361d027b3146103285780636352211e1461034857600080fd5b806301ffc9a71461016b57806306fdde03146101a0578063081812fc146101c2578063095ea7b3146101fa57806312e8e2c31461021c57806322dcd13e1461023c575b600080fd5b34801561017757600080fd5b5061018b610186366004611858565b610519565b60405190151581526020015b60405180910390f35b3480156101ac57600080fd5b506101b561056b565b60405161019791906118cc565b3480156101ce57600080fd5b506101e26101dd3660046118df565b6105fd565b6040516001600160a01b039091168152602001610197565b34801561020657600080fd5b5061021a61021536600461190d565b610624565b005b34801561022857600080fd5b5061021a6102373660046118df565b61073e565b34801561024857600080fd5b50610252600a5481565b604051908152602001610197565b34801561026c57600080fd5b5061021a61027b366004611939565b610787565b34801561028c57600080fd5b5061021a61029b366004611939565b6107b8565b3480156102ac57600080fd5b5061018b6102bb36600461197a565b6000918252600d602090815260408084206001600160a01b03939093168452919052902054151590565b3480156102f157600080fd5b5061025261030036600461197a565b6000918252600d602090815260408084206001600160a01b0393909316845291905290205490565b34801561033457600080fd5b506009546101e2906001600160a01b031681565b34801561035457600080fd5b506101e26103633660046118df565b6107d3565b34801561037457600080fd5b506102526103833660046119aa565b610833565b34801561039457600080fd5b5061021a6108b9565b3480156103a957600080fd5b506008546101e2906001600160a01b031681565b3480156103c957600080fd5b506006546001600160a01b03166101e2565b3480156103e757600080fd5b506101b56108cd565b3480156103fc57600080fd5b5061021a61040b3660046119d5565b6108dc565b34801561041c57600080fd5b5061021a61042b366004611a19565b6108eb565b34801561043c57600080fd5b506101b561044b3660046118df565b610923565b34801561045c57600080fd5b5061018b61046b366004611af9565b6001600160a01b03918216600090815260056020908152604080832093909416825291909152205460ff1690565b3480156104a557600080fd5b5061021a6104b43660046119aa565b6109b0565b3480156104c557600080fd5b506102526104d43660046118df565b600c6020526000908152604090205481565b3480156104f257600080fd5b5061021a6105013660046119aa565b6109da565b6102526105143660046118df565b610a53565b60006001600160e01b031982166380ac58cd60e01b148061054a57506001600160e01b03198216635b5e139f60e01b145b8061056557506301ffc9a760e01b6001600160e01b03198316145b92915050565b60606000805461057a90611b27565b80601f01602080910402602001604051908101604052809291908181526020018280546105a690611b27565b80156105f35780601f106105c8576101008083540402835291602001916105f3565b820191906000526020600020905b8154815290600101906020018083116105d657829003601f168201915b5050505050905090565b600061060882610ec8565b506000908152600460205260409020546001600160a01b031690565b600061062f826107d3565b9050806001600160a01b0316836001600160a01b0316036106a15760405162461bcd60e51b815260206004820152602160248201527f4552433732313a20617070726f76616c20746f2063757272656e74206f776e656044820152603960f91b60648201526084015b60405180910390fd5b336001600160a01b03821614806106bd57506106bd813361046b565b61072f5760405162461bcd60e51b815260206004820152603d60248201527f4552433732313a20617070726f76652063616c6c6572206973206e6f7420746f60448201527f6b656e206f776e6572206f7220617070726f76656420666f7220616c6c0000006064820152608401610698565b6107398383610f27565b505050565b610746610f95565b6107d08111156107825760405162461bcd60e51b81526020600482015260076024820152666d61782032302560c81b6044820152606401610698565b600a55565b6107913382610fef565b6107ad5760405162461bcd60e51b815260040161069890611b61565b61073983838361106e565b610739838383604051806020016040528060008152506108eb565b6000818152600260205260408120546001600160a01b0316806105655760405162461bcd60e51b8152602060048201526018602482015277115490cdcc8c4e881a5b9d985b1a59081d1bdad95b88125160421b6044820152606401610698565b60006001600160a01b03821661089d5760405162461bcd60e51b815260206004820152602960248201527f4552433732313a2061646472657373207a65726f206973206e6f7420612076616044820152683634b21037bbb732b960b91b6064820152608401610698565b506001600160a01b031660009081526003602052604090205490565b6108c1610f95565b6108cb60006111df565b565b60606001805461057a90611b27565b6108e7338383611231565b5050565b6108f53383610fef565b6109115760405162461bcd60e51b815260040161069890611b61565b61091d848484846112ff565b50505050565b6000818152600260205260409020546060906001600160a01b03166109815760405162461bcd60e51b81526020600482015260146024820152731d1bdad95b88191bd95cc81b9bdd08195e1a5cdd60621b6044820152606401610698565b61098a82611332565b60405160200161099a9190611bae565b6040516020818303038152906040529050919050565b6109b8610f95565b600980546001600160a01b0319166001600160a01b0392909216919091179055565b6109e2610f95565b6001600160a01b038116610a475760405162461bcd60e51b815260206004820152602660248201527f4f776e61626c653a206e6577206f776e657220697320746865207a65726f206160448201526564647265737360d01b6064820152608401610698565b610a50816111df565b50565b6000610a5d611434565b6008546040516348a494ab60e11b8152600481018490526000916001600160a01b0316906391492956906024016040805180830381865afa158015610aa6573d6000803e3d6000fd5b505050506040513d601f19601f82011682018060405250810190610aca9190611bfe565b6008546040516382afd23b60e01b8152600481018790529193506001600160a01b031691506382afd23b90602401602060405180830381865afa158015610b15573d6000803e3d6000fd5b505050506040513d601f19601f82011682018060405250810190610b399190611c22565b610b795760405162461bcd60e51b8152602060048201526011602482015270736b696c6c20697320696e61637469766560781b6044820152606401610698565b60008111610bd85760405162461bcd60e51b815260206004820152602660248201527f4e4654206c6963656e7365206e6f7420656e61626c656420666f722074686973604482015265081cdada5b1b60d21b6064820152608401610698565b803414610c1b5760405162461bcd60e51b81526020600482015260116024820152701a5b98dbdc9c9958dd081c185e5b595b9d607a1b6044820152606401610698565b6000612710600a5434610c2e9190611c55565b610c389190611c82565b90506000610c468234611c96565b600854604051630b90bd9d60e41b8152600481018890529192506000916001600160a01b039091169063b90bd9d090602401602060405180830381865afa158015610c95573d6000803e3d6000fd5b505050506040513d601f19601f82011682018060405250810190610cb99190611ca9565b90506000816001600160a01b03168360405160006040518083038185875af1925050503d8060008114610d08576040519150601f19603f3d011682016040523d82523d6000602084013e610d0d565b606091505b50506009546040519192506000916001600160a01b039091169086908381818185875af1925050503d8060008114610d61576040519150601f19603f3d011682016040523d82523d6000602084013e610d66565b606091505b50509050818015610d745750805b610db25760405162461bcd60e51b815260206004820152600f60248201526e1d1c985b9cd9995c8819985a5b1959608a1b6044820152606401610698565b600b8054906000610dc283611cc6565b919050559650610dd2338861148d565b6000878152600c602090815260408083208b90558a8352600d82528083203384529091528120805460019290610e09908490611cdf565b9091555050600854604051634160b9bf60e01b8152600481018a90526001600160a01b0390911690634160b9bf90602401600060405180830381600087803b158015610e5457600080fd5b505af1158015610e68573d6000803e3d6000fd5b505060408051348152602081018890529081018890523392508a915089907ff539ed2613f83494787572abbefaf49ed0a79f8b5442ee99837c00b1464f94a39060600160405180910390a4505050505050610ec36001600755565b919050565b6000818152600260205260409020546001600160a01b0316610a505760405162461bcd60e51b8152602060048201526018602482015277115490cdcc8c4e881a5b9d985b1a59081d1bdad95b88125160421b6044820152606401610698565b600081815260046020526040902080546001600160a01b0319166001600160a01b0384169081179091558190610f5c826107d3565b6001600160a01b03167f8c5be1e5ebec7d5bd14f71427d1e84f3dd0314c0f7b2291e5b200ac8c7c3b92560405160405180910390a45050565b6006546001600160a01b031633146108cb5760405162461bcd60e51b815260206004820181905260248201527f4f776e61626c653a2063616c6c6572206973206e6f7420746865206f776e65726044820152606401610698565b600080610ffb836107d3565b9050806001600160a01b0316846001600160a01b0316148061104257506001600160a01b0380821660009081526005602090815260408083209388168352929052205460ff165b806110665750836001600160a01b031661105b846105fd565b6001600160a01b0316145b949350505050565b826001600160a01b0316611081826107d3565b6001600160a01b0316146110a75760405162461bcd60e51b815260040161069890611cf2565b6001600160a01b0382166111095760405162461bcd60e51b8152602060048201526024808201527f4552433732313a207472616e7366657220746f20746865207a65726f206164646044820152637265737360e01b6064820152608401610698565b61111683838360016114a7565b826001600160a01b0316611129826107d3565b6001600160a01b03161461114f5760405162461bcd60e51b815260040161069890611cf2565b600081815260046020908152604080832080546001600160a01b03199081169091556001600160a01b0387811680865260038552838620805460001901905590871680865283862080546001019055868652600290945282852080549092168417909155905184937fddf252ad1be2c89b69c2b068fc378daa952ba7f163c4a11628f55a4df523b3ef91a4505050565b600680546001600160a01b038381166001600160a01b0319831681179093556040519116919082907f8be0079c531659141344cd1fd0a4f28419497f9722a3daafe3b4186f6b6457e090600090a35050565b816001600160a01b0316836001600160a01b0316036112925760405162461bcd60e51b815260206004820152601960248201527f4552433732313a20617070726f766520746f2063616c6c6572000000000000006044820152606401610698565b6001600160a01b03838116600081815260056020908152604080832094871680845294825291829020805460ff191686151590811790915591519182527f17307eab39ab6107e8899845ad3d59bd9653f200f220920489ca2b5937696c31910160405180910390a3505050565b61130a84848461106e565b61131684848484611575565b61091d5760405162461bcd60e51b815260040161069890611d37565b6060816000036113595750506040805180820190915260018152600360fc1b602082015290565b8160005b8115611383578061136d81611cc6565b915061137c9050600a83611c82565b915061135d565b60008167ffffffffffffffff81111561139e5761139e611a03565b6040519080825280601f01601f1916602001820160405280156113c8576020820181803683370190505b5090505b841561106657816113dc81611d89565b92506113eb9050600a86611da0565b6113f6906030611cdf565b60f81b81838151811061140b5761140b611db4565b60200101906001600160f81b031916908160001a90535061142d600a86611c82565b94506113cc565b6002600754036114865760405162461bcd60e51b815260206004820152601f60248201527f5265656e7472616e637947756172643a207265656e7472616e742063616c6c006044820152606401610698565b6002600755565b6108e7828260405180602001604052806000815250611676565b6000828152600c60205260409020546001600160a01b03851615611526576000818152600d602090815260408083206001600160a01b038916845290915290205415611526576000818152600d602090815260408083206001600160a01b03891684529091528120805460019290611520908490611c96565b90915550505b6001600160a01b0384161561156e576000818152600d602090815260408083206001600160a01b03881684529091528120805460019290611568908490611cdf565b90915550505b5050505050565b60006001600160a01b0384163b1561166b57604051630a85bd0160e11b81526001600160a01b0385169063150b7a02906115b9903390899088908890600401611dca565b6020604051808303816000875af19250505080156115f4575060408051601f3d908101601f191682019092526115f191810190611e07565b60015b611651573d808015611622576040519150601f19603f3d011682016040523d82523d6000602084013e611627565b606091505b5080516000036116495760405162461bcd60e51b815260040161069890611d37565b805181602001fd5b6001600160e01b031916630a85bd0160e11b149050611066565b506001949350505050565b61168083836116a9565b61168d6000848484611575565b6107395760405162461bcd60e51b815260040161069890611d37565b6001600160a01b0382166116ff5760405162461bcd60e51b815260206004820181905260248201527f4552433732313a206d696e7420746f20746865207a65726f20616464726573736044820152606401610698565b6000818152600260205260409020546001600160a01b0316156117645760405162461bcd60e51b815260206004820152601c60248201527f4552433732313a20746f6b656e20616c7265616479206d696e746564000000006044820152606401610698565b6117726000838360016114a7565b6000818152600260205260409020546001600160a01b0316156117d75760405162461bcd60e51b815260206004820152601c60248201527f4552433732313a20746f6b656e20616c7265616479206d696e746564000000006044820152606401610698565b6001600160a01b038216600081815260036020908152604080832080546001019055848352600290915280822080546001600160a01b0319168417905551839291907fddf252ad1be2c89b69c2b068fc378daa952ba7f163c4a11628f55a4df523b3ef908290a45050565b6001600160e01b031981168114610a5057600080fd5b60006020828403121561186a57600080fd5b813561187581611842565b9392505050565b60005b8381101561189757818101518382015260200161187f565b50506000910152565b600081518084526118b881602086016020860161187c565b601f01601f19169290920160200192915050565b60208152600061187560208301846118a0565b6000602082840312156118f157600080fd5b5035919050565b6001600160a01b0381168114610a5057600080fd5b6000806040838503121561192057600080fd5b823561192b816118f8565b946020939093013593505050565b60008060006060848603121561194e57600080fd5b8335611959816118f8565b92506020840135611969816118f8565b929592945050506040919091013590565b6000806040838503121561198d57600080fd5b82359150602083013561199f816118f8565b809150509250929050565b6000602082840312156119bc57600080fd5b8135611875816118f8565b8015158114610a5057600080fd5b600080604083850312156119e857600080fd5b82356119f3816118f8565b9150602083013561199f816119c7565b634e487b7160e01b600052604160045260246000fd5b60008060008060808587031215611a2f57600080fd5b8435611a3a816118f8565b93506020850135611a4a816118f8565b925060408501359150606085013567ffffffffffffffff80821115611a6e57600080fd5b818701915087601f830112611a8257600080fd5b813581811115611a9457611a94611a03565b604051601f8201601f19908116603f01168101908382118183101715611abc57611abc611a03565b816040528281528a6020848701011115611ad557600080fd5b82602086016020830137600060208483010152809550505050505092959194509250565b60008060408385031215611b0c57600080fd5b8235611b17816118f8565b9150602083013561199f816118f8565b600181811c90821680611b3b57607f821691505b602082108103611b5b57634e487b7160e01b600052602260045260246000fd5b50919050565b6020808252602d908201527f4552433732313a2063616c6c6572206973206e6f7420746f6b656e206f776e6560408201526c1c881bdc88185c1c1c9bdd9959609a1b606082015260800190565b7f68747470733a2f2f736b696c6c6d696e742e78797a2f6170692f6c6963656e73815261652f60f01b602082015260008251611bf181602285016020870161187c565b9190910160220192915050565b60008060408385031215611c1157600080fd5b505080516020909101519092909150565b600060208284031215611c3457600080fd5b8151611875816119c7565b634e487b7160e01b600052601160045260246000fd5b808202811582820484141761056557610565611c3f565b634e487b7160e01b600052601260045260246000fd5b600082611c9157611c91611c6c565b500490565b8181038181111561056557610565611c3f565b600060208284031215611cbb57600080fd5b8151611875816118f8565b600060018201611cd857611cd8611c3f565b5060010190565b8082018082111561056557610565611c3f565b60208082526025908201527f4552433732313a207472616e736665722066726f6d20696e636f72726563742060408201526437bbb732b960d91b606082015260800190565b60208082526032908201527f4552433732313a207472616e7366657220746f206e6f6e20455243373231526560408201527131b2b4bb32b91034b6b83632b6b2b73a32b960711b606082015260800190565b600081611d9857611d98611c3f565b506000190190565b600082611daf57611daf611c6c565b500690565b634e487b7160e01b600052603260045260246000fd5b6001600160a01b0385811682528416602082015260408101839052608060608201819052600090611dfd908301846118a0565b9695505050505050565b600060208284031215611e1957600080fd5b81516118758161184256fea2646970667358221220433497f15f42a74713e212e40506bab38734d748840a4d9f3ee38082d24d617064736f6c63430008140033",
  "linkReferences": {},
  "deployedLinkReferences": {}
}