{
  "_format": "hh-sol-artifact-1",
  "contractName": "SkillPayment",
  "sourceName": "contracts/SkillPayment.sol",
  "abi": [
    {
      "inputs": [
        {
          "internalType": "address",
          "name": "_registry",
          "type": "address"
        },
        {
          "internalType": "address",
          "name": "_treasury",
          "type": "address"
        }
      ],
      "stateMutability": "nonpayable",
      "type": "constructor"
    },
    {
      "anonymous": false,
      "inputs": [
        {
          "indexed": true,
          "internalType": "address",
          "name": "previousOwner",
          "type": "address"
        },
        {
          "indexed": true,
          "internalType": "address",
          "name": "newOwner",
          "type": "address"
        }
      ],
      "name": "OwnershipTransferred",
      "type": "event"
    },
    {
      "anonymous": false,
      "inputs": [
        {
          "indexed": true,
          "internalType": "uint256",
          "name": "skillId",
          "type": "uint256"
        },
        {
          "indexed": true,
          "internalType": "address",
          "name": "caller",
          "type": "address"
        },
        {
          "indexed": false,
          "internalType": "uint256",
          "name": "totalPaid",
          "type": "uint256"
        },
        {
          "indexed": false,
          "internalType": "uint256",
          "name": "creatorShare",
          "type": "uint256"
        },
        {
          "indexed": false,
          "internalType": "uint256",
          "name": "platformShare",
          "type": "uint256"
        },
        {
          "indexed": false,
          "internalType": "bytes32",
          "name": "requestId",
          "type": "bytes32"
        }
      ],
      "name": "SkillCalled",
      "type": "event"
    },
    {
      "inputs": [
        {
          "internalType": "uint256",
          "name": "skillId",
          "type": "uint256"
        },
        {
          "internalType": "bytes32",
          "name": "requestId",
          "type": "bytes32"
        }
      ],
      "name": "callSkill",
      "outputs": [],
      "stateMutability": "payable",
      "type": "function"
    },
    {
      "inputs": [],
      "name": "owner",
      "outputs": [
        {
          "internalType": "address",
          "name": "",
          "type": "address"
        }
      ],
      "stateMutability": "view",
      "type": "function"
    },
    {
      "inputs": [],
      "name": "platformFeeBps",
      "outputs": [
        {
          "internalType": "uint256",
          "name": "",
          "type": "uint256"
        }
      ],
      "stateMutability": "view",
      "type": "function"
    },
    {
      "inputs": [],
      "name": "registry",
      "outputs": [
        {
          "internalType": "contract SkillRegistry",
          "name": "",
          "type": "address"
        }
      ],
      "stateMutability": "view",
      "type": "function"
    },
    {
      "inputs": [],
      "name": "renounceOwnership",
      "outputs": [],
      "stateMutability": "nonpayable",
      "type": "function"
    },
    {
      "inputs": [
        {
          "internalType": "uint256",
          "name": "bps",
          "type": "uint256"
        }
      ],
      "name": "setPlatformFee",
      "outputs": [],
      "stateMutability": "nonpayable",
      "type": "function"
    },
    {
      "inputs": [
        {
          "internalType": "address",
          "name": "_treasury",
          "type": "address"
        }
      ],
      "name": "setTreasury",
      "outputs": [],
      "stateMutability": "nonpayable",
      "type": "function"
    },
    {
      "inputs": [
        {
          "internalType": "address",
          "name": "newOwner",
          "type": "address"
        }
      ],
      "name": "transferOwnership",
      "outputs": [],
      "stateMutability": "nonpayable",
      "type": "function"
    },
    {
      "inputs": [],
      "name": "treasury",
      "outputs": [
        {
          "internalType": "address",
          "name": "",
          "type": "address"
        }
      ],
      "stateMutability": "view",
      "type": "function"
    }
  ],
  "bytecode": "0x60806040526103e860045534801561001657600080fd5b50604051610a0d380380610a0d833981016040819052610035916100df565b61003e33610073565b60018055600280546001600160a01b039384166001600160a01b03199182161790915560038054929093169116179055610112565b600080546001600160a01b038381166001600160a01b0319831681178455604051919092169283917f8be0079c531659141344cd1fd0a4f28419497f9722a3daafe3b4186f6b6457e09190a35050565b80516001600160a01b03811681146100da57600080fd5b919050565b600080604083850312156100f257600080fd5b6100fb836100c3565b9150610109602084016100c3565b90509250929050565b6108ec806101216000396000f3fe6080604052600436106100865760003560e01c8063715018a611610059578063715018a6146101215780637b103999146101365780638da5cb5b14610156578063f0f4426014610174578063f2fde38b1461019457600080fd5b806312e8e2c31461008b57806322dcd13e146100ad57806361d027b3146100d65780636c37870d1461010e575b600080fd5b34801561009757600080fd5b506100ab6100a6366004610777565b6101b4565b005b3480156100b957600080fd5b506100c360045481565b6040519081526020015b60405180910390f35b3480156100e257600080fd5b506003546100f6906001600160a01b031681565b6040516001600160a01b0390911681526020016100cd565b6100ab61011c366004610790565b610202565b34801561012d57600080fd5b506100ab6105bd565b34801561014257600080fd5b506002546100f6906001600160a01b031681565b34801561016257600080fd5b506000546001600160a01b03166100f6565b34801561018057600080fd5b506100ab61018f3660046107c7565b6105d1565b3480156101a057600080fd5b506100ab6101af3660046107c7565b6105fb565b6101bc610674565b6107d08111156101fd5760405162461bcd60e51b81526020600482015260076024820152666d61782032302560c81b60448201526064015b60405180910390fd5b600455565b61020a6106ce565b6002546040516348a494ab60e11b8152600481018490526000916001600160a01b0316906391492956906024016040805180830381865afa158015610253573d6000803e3d6000fd5b505050506040513d601f19601f8201168201806040525081019061027791906107eb565b506002546040516382afd23b60e01b8152600481018690529192506001600160a01b0316906382afd23b90602401602060405180830381865afa1580156102c2573d6000803e3d6000fd5b505050506040513d601f19601f820116820180604052508101906102e6919061080f565b6103265760405162461bcd60e51b8152602060048201526011602482015270736b696c6c20697320696e61637469766560781b60448201526064016101f4565b8034146103695760405162461bcd60e51b81526020600482015260116024820152701a5b98dbdc9c9958dd081c185e5b595b9d607a1b60448201526064016101f4565b60006127106004543461037c9190610847565b6103869190610864565b905060006103948234610886565b600254604051630b90bd9d60e41b8152600481018890529192506000916001600160a01b039091169063b90bd9d090602401602060405180830381865afa1580156103e3573d6000803e3d6000fd5b505050506040513d601f19601f820116820180604052508101906104079190610899565b90506000816001600160a01b03168360405160006040518083038185875af1925050503d8060008114610456576040519150601f19603f3d011682016040523d82523d6000602084013e61045b565b606091505b50506003546040519192506000916001600160a01b039091169086908381818185875af1925050503d80600081146104af576040519150601f19603f3d011682016040523d82523d6000602084013e6104b4565b606091505b505090508180156104c25750805b6105005760405162461bcd60e51b815260206004820152600f60248201526e1d1c985b9cd9995c8819985a5b1959608a1b60448201526064016101f4565b600254604051634160b9bf60e01b8152600481018a90526001600160a01b0390911690634160b9bf90602401600060405180830381600087803b15801561054657600080fd5b505af115801561055a573d6000803e3d6000fd5b50506040805134815260208101889052908101889052606081018a90523392508a91507f18724dd2c6284a8cbf99d4774a1d99cbaafcb07f43a2b74b5f3cb984fd05b9769060800160405180910390a35050505050506105b960018055565b5050565b6105c5610674565b6105cf6000610727565b565b6105d9610674565b600380546001600160a01b0319166001600160a01b0392909216919091179055565b610603610674565b6001600160a01b0381166106685760405162461bcd60e51b815260206004820152602660248201527f4f776e61626c653a206e6577206f776e657220697320746865207a65726f206160448201526564647265737360d01b60648201526084016101f4565b61067181610727565b50565b6000546001600160a01b031633146105cf5760405162461bcd60e51b815260206004820181905260248201527f4f776e61626c653a2063616c6c6572206973206e6f7420746865206f776e657260448201526064016101f4565b6002600154036107205760405162461bcd60e51b815260206004820152601f60248201527f5265656e7472616e637947756172643a207265656e7472616e742063616c6c0060448201526064016101f4565b6002600155565b600080546001600160a01b038381166001600160a01b0319831681178455604051919092169283917f8be0079c531659141344cd1fd0a4f28419497f9722a3daafe3b4186f6b6457e09190a35050565b60006020828403121561078957600080fd5b5035919050565b600080604083850312156107a357600080fd5b50508035926020909101359150565b6001600160a01b038116811461067157600080fd5b6000602082840312156107d957600080fd5b81356107e4816107b2565b9392505050565b600080604083850312156107fe57600080fd5b505080516020909101519092909150565b60006020828403121561082157600080fd5b815180151581146107e457600080fd5b634e487b7160e01b600052601160045260246000fd5b808202811582820484141761085e5761085e610831565b92915050565b60008261088157634e487b7160e01b600052601260045260246000fd5b500490565b8181038181111561085e5761085e610831565b6000602082840312156108ab57600080fd5b81516107e4816107b256fea2646970667358221220300b00b9e591cf8c03762f0a365249f4453b885535653437f600dad19f8a9a7f64736f6c63430008140033",
  "linkReferences": {},
  "deployedLinkReferences": {}
}